:1000000024C05BC147C046C045C07EC143C042C09A
:1000100041C040C03FC03EC03DC03CC03BC00102EB
:100020000000040000000000010204081020200469
:100030001008020202020202020202020000000094
:100040003800000000003700330111241FBECFE547
:10005000D2E0DEBFCDBF10E0A0E6B0E0EEE1F8E018
:1000600002C005900D92A237B107D9F720E0A2E7B0
:10007000B0E001C01D92A438B207E1F710E0C5E27C
:10008000D0E003C02197FE0120D3C432D107D1F7BD
:10009000BAD2C3C3B5CFEF92FF920F931F93CF9302
:1000A000DF938CE6E82E80E0F82E61E0F701808196
:1000B00006D208E710E061E0F801808100D2CAE6CC
:1000C000D0E061E08881FBD162E080916800F7D1E7
:1000D00080916600C6D1BC01990F880B990B58D24C
:1000E00061E0F701808127D264EF71E080E090E069
:1000F0007BD160E0F70180811ED264EF71E080E087
:1001000090E072D161E0F801808115D264EF71E076
:1001100080E090E069D160E0F80180810CD264EF6A
:1001200071E080E090E060D161E0888104D264EF0A
:1001300071E080E090E058D160E08881FCD164EF0C
:1001400071E080E090E050D142E050E06DEC70E072
:1001500080E0DF91CF911F910F91FF90EF9099C0B8
:1001600008950F931F93CF93DF9302E710E0C0E051
:10017000D0E08091640090916500C817D90744F4DD
:10018000F80180810E5F1F4F60E0D5D12196F1CF3D
:10019000DF91CF911F910F9108958F929F92AF920F
:1001A000BF92CF92DF92EF92FF920F931F93CF9364
:1001B000DF9324E030E040E050E060E070E0CB010D
:1001C00005D2EB016330710514F0C0E0D0E0C9DF67
:1001D00090ED892E97E0992EA12CB12C02E710E02A
:1001E000E12CF12C8091640090916500E816F906ED
:1001F000A4F461E0F80180819ED1C501B401F4D07E
:1002000060E0F80180810E5F1F4F95D1C501B401F8
:10021000EBD0FFEFEF1AFF0AE5CF84EF881A81E0F9
:10022000980AA108B108D1F668E873E180E090E08F
:10023000DBD097DFCC0FDD1FCE58DF4F61E0888128
:100240007AD160E375E780E090E0CED0DF91CF9186
:100250001F910F91FF90EF90DF90CF90BF90AF90E4
:100260009F908F907ECFE2E7F0E080916C009091BC
:100270006D009183808380917800909179009383C1
:10028000828380916A0090916B00958384830895A6
:100290000895823088F4E82FF0E0EE0FFF1FE25956
:1002A000FF4F71836083811107C085B78C7F482B16
:1002B00045BF8BB780648BBF08951F920F920FB616
:1002C0000F9211242F933F934F935F936F937F93DC
:1002D0008F939F93AF93BF93EF93FF93E0916E0043
:1002E000F0916F000995FF91EF91BF91AF919F91B0
:1002F0008F917F916F915F914F913F912F910F90CF
:100300000FBE0F901F9018951F920F920FB60F926D
:1003100011242F933F938F939F93AF93BF9380911B
:100320007B0090917C00A0917D00B0917E00309187
:100330007A0020E3230F2D3758F54096A11DB11DFB
:1003400020937A0080937B0090937C00A0937D00A3
:10035000B0937E0080917F0090918000A0918100F9
:10036000B09182000196A11DB11D80937F009093F2
:100370008000A0938100B0938200BF91AF919F91C4
:100380008F913F912F910F900FBE0F901F90189556
:1003900023EB230F4196A11DB11DD2CF3FB7F89497
:1003A00080917F0090918000A0918100B0918200A7
:1003B00022B708B601FE05C02F3F19F00196A11D16
:1003C000B11D3FBFBA2FA92F982F8827BC01CD019F
:1003D000620F711D811D911D46E0660F771F881FFA
:1003E000991F4A95D1F70895CF92DF92EF92FF922D
:1003F000CF93DF936B017C01D1DFEB01C114D104FA
:10040000E104F10439F4DF91CF91FF90EF90DF9098
:10041000CF90089502D1C2DF6C1B7D0B683E734004
:1004200068F381E0C81AD108E108F108C851DC4F2F
:10043000E5CF78948AB582608ABD8AB581608ABD2D
:1004400083B7826083BF83B7816083BF89B78260CF
:1004500089BF80B7826080BF3298319A309A379ACC
:100460000895863008F08650909183009295990FF8
:10047000990F907C8770892B87B9369A3699FECF71
:1004800084B125B190E0922B0895823089F018F460
:10049000813051F00895833019F0843009F00895C7
:1004A0008CB58F7D8CBD08958AB58F778ABD0895F0
:1004B0008AB58F7DFBCF8CB580648CBD0895CF93BA
:1004C000DF9390E0FC01E85DFF4F24918E5C9F4F2D
:1004D000FC0184918823C9F090E0880F991FFC01EA
:1004E000EE5BFF4FA591B491FC01E45CFF4FC59119
:1004F000D49161110DC09FB7F8948C9120958223FF
:100500008C938881282328839FBFDF91CF91089502
:10051000623051F49FB7F8943C91822F80958323E9
:100520008C93E8812E2BEFCF8FB7F894EC912E2B84
:100530002C938FBFEACF1F93CF93DF93162F282FD3
:1005400030E0F901E25EFF4F8491F901E85DFF4F71
:10055000D491F901EE5CFF4FC491CC2399F0811145
:1005600094DFEC2FF0E0EE0FFF1FE45CFF4FA5914E
:10057000B4918FB7F894EC91111108C0D095DE2397
:10058000DC938FBFDF91CF911F910895DE2BF8CFC1
:10059000611571058105910509F036C10895CF9265
:1005A000DF92EF92FF926B017C01672B682B692B26
:1005B00031F0DCD0A70196014AD06B017C01C70164
:1005C000B601FF90EF90DF90CF900895CF92DF9229
:1005D000EF92FF926B017C01621773078407950706
:1005E0005CF4CA01B9016C197D098E099F09D7DF36
:1005F000C60ED71EE81EF91EC701B601FF90EF9088
:10060000DF90CF90089515DF56DF45DDC0E0D0E0E4
:10061000A7DD2097E9F3F4DCFBCF0895EE27FF2751
:10062000AA27BB2708C0A20FB31FE41FF51F220F84
:10063000331F441F551F969587957795679598F3B7
:100640007040A9F7009799F7BD01CF010895052ED5
:1006500097FB16F400940FD057FD05D014D007FC7B
:1006600002D046F408C050954095309521953F4FF3
:100670004F4F5F4F089590958095709561957F4F8E
:100680008F4F9F4F0895A1E21A2EAA1BBB1BFD019D
:100690000DC0AA1FBB1FEE1FFF1FA217B307E40761
:1006A000F50720F0A21BB30BE40BF50B661F771FB9
:1006B000881F991F1A9469F7609570958095909599
:1006C0009B01AC01BD01CF010895EE0FFF1F059006
:1006D000F491E02D09948F929F92AF92BF92CF92A6
:1006E000DF92EF92FF92CF93DF93EC0168817981E3
:1006F0008A819B81611571058105910521F464E270
:1007000079ED8BE597E02DE133EF41E050E09FDF9D
:1007100049015A0127EA31E440E050E07FDF6B01F4
:100720007C012CEE34EF4FEF5FEFC501B40176DFB3
:10073000C60ED71EE81EF91EF7FE06C081E0C81AD5
:10074000D108E10880E8F80AC882D982EA82FB82EF
:10075000C701B6019F77DF91CF91FF90EF90DF90B7
:10076000CF90BF90AF909F908F9008958F929F925F
:10077000AF92BF92CF92DF92EF92FF9260916000B2
:100780007091610080916200909163006115710524
:100790008105910521F464E279ED8BE597E02DE187
:1007A00033EF41E050E053DF49015A0127EA31E4D9
:1007B00040E050E033DF6B017C012CEE34EF4FEF73
:1007C0005FEFC501B4012ADFC60ED71EE81EF91E71
:1007D000F7FE06C081E0C81AD108E10880E8F80AEF
:1007E000C0926000D0926100E0926200F0926300DB
:1007F000C701B6019F77FF90EF90DF90CF90BF9039
:10080000AF909F908F900895609360007093610007
:0E08100080936200909363000895F894FFCFE8
:10081E000100000003000300020004000100480173
:02082E0048017F
:00000001FF
